{
  "_format": "hh-sol-artifact-1",
  "contractName": "TokenTransfer",
  "sourceName": "contracts/Lock.sol",
  "abi": [
    {
      "inputs": [],
      "stateMutability": "nonpayable",
      "type": "constructor"
    },
    {
      "anonymous": false,
      "inputs": [
        {
          "indexed": true,
          "internalType": "address",
          "name": "from",
          "type": "address"
        },
        {
          "indexed": true,
          "internalType": "address",
          "name": "to",
          "type": "address"
        },
        {
          "indexed": false,
          "internalType": "uint256",
          "name": "value",
          "type": "uint256"
        }
      ],
      "name": "Transfer",
      "type": "event"
    },
    {
      "inputs": [
        {
          "internalType": "address",
          "name": "account",
          "type": "address"
        }
      ],
      "name": "balanceOf",
      "outputs": [
        {
          "internalType": "uint256",
          "name": "",
          "type": "uint256"
        }
      ],
      "stateMutability": "view",
      "type": "function"
    },
    {
      "inputs": [
        {
          "internalType": "address",
          "name": "",
          "type": "address"
        }
      ],
      "name": "balances",
      "outputs": [
        {
          "internalType": "uint256",
          "name": "",
          "type": "uint256"
        }
      ],
      "stateMutability": "view",
      "type": "function"
    },
    {
      "inputs": [
        {
          "internalType": "address",
          "name": "receiver",
          "type": "address"
        },
        {
          "internalType": "uint256",
          "name": "amount",
          "type": "uint256"
        }
      ],
      "name": "transfer",
      "outputs": [
        {
          "internalType": "bool",
          "name": "",
          "type": "bool"
        }
      ],
      "stateMutability": "nonpayable",
      "type": "function"
    }
  ],
  "bytecode": "0x608060405234801561001057600080fd5b5060003373ffffffffffffffffffffffffffffffffffffffff16319050806000803373ffffffffffffffffffffffffffffffffffffffff1673ffffffffffffffffffffffffffffffffffffffff168152602001908152602001600020819055505061065c806100806000396000f3fe608060405234801561001057600080fd5b50600436106100415760003560e01c806327e235e31461004657806370a0823114610076578063a9059cbb146100a6575b600080fd5b610060600480360381019061005b91906103a3565b6100d6565b60405161006d91906103e9565b60405180910390f35b610090600480360381019061008b91906103a3565b6100ee565b60405161009d91906103e9565b60405180910390f35b6100c060048036038101906100bb9190610430565b610136565b6040516100cd919061048b565b60405180910390f35b60006020528060005260406000206000915090505481565b60008060008373ffffffffffffffffffffffffffffffffffffffff1673ffffffffffffffffffffffffffffffffffffffff168152602001908152602001600020549050919050565b60008073ffffffffffffffffffffffffffffffffffffffff168373ffffffffffffffffffffffffffffffffffffffff16036101a6576040517f08c379a000000000000000000000000000000000000000000000000000000000815260040161019d90610503565b60405180910390fd5b816000803373ffffffffffffffffffffffffffffffffffffffff1673ffffffffffffffffffffffffffffffffffffffff168152602001908152602001600020541015610227576040517f08c379a000000000000000000000000000000000000000000000000000000000815260040161021e9061056f565b60405180910390fd5b816000803373ffffffffffffffffffffffffffffffffffffffff1673ffffffffffffffffffffffffffffffffffffffff168152602001908152602001600020600082825461027591906105be565b92505081905550816000808573ffffffffffffffffffffffffffffffffffffffff1673ffffffffffffffffffffffffffffffffffffffff16815260200190815260200160002060008282546102ca91906105f2565b925050819055508273ffffffffffffffffffffffffffffffffffffffff163373ffffffffffffffffffffffffffffffffffffffff167fddf252ad1be2c89b69c2b068fc378daa952ba7f163c4a11628f55a4df523b3ef8460405161032e91906103e9565b60405180910390a36001905092915050565b600080fd5b600073ffffffffffffffffffffffffffffffffffffffff82169050919050565b600061037082610345565b9050919050565b61038081610365565b811461038b57600080fd5b50565b60008135905061039d81610377565b92915050565b6000602082840312156103b9576103b8610340565b5b60006103c78482850161038e565b91505092915050565b6000819050919050565b6103e3816103d0565b82525050565b60006020820190506103fe60008301846103da565b92915050565b61040d816103d0565b811461041857600080fd5b50565b60008135905061042a81610404565b92915050565b6000806040838503121561044757610446610340565b5b60006104558582860161038e565b92505060206104668582860161041b565b9150509250929050565b60008115159050919050565b61048581610470565b82525050565b60006020820190506104a0600083018461047c565b92915050565b600082825260208201905092915050565b7f496e76616c696420726563656976657220616464726573730000000000000000600082015250565b60006104ed6018836104a6565b91506104f8826104b7565b602082019050919050565b6000602082019050818103600083015261051c816104e0565b9050919050565b7f496e73756666696369656e742062616c616e6365000000000000000000000000600082015250565b60006105596014836104a6565b915061056482610523565b602082019050919050565b600060208201905081810360008301526105888161054c565b9050919050565b7f4e487b7100000000000000000000000000000000000000000000000000000000600052601160045260246000fd5b60006105c9826103d0565b91506105d4836103d0565b92508282039050818111156105ec576105eb61058f565b5b92915050565b60006105fd826103d0565b9150610608836103d0565b92508282019050808211156106205761061f61058f565b5b9291505056fea26469706673582212207702d6fa5eaeca4f9828b6e33d43e92807f33d811b4e6354968365c2cf270ce864736f6c63430008110033",
  "linkReferences": {},
  "deployedLinkReferences": {}
}